{
  "_format": "hh-sol-artifact-1",
  "contractName": "HospitalLogs",
  "sourceName": "contracts/HospitalLogs.sol",
  "abi": [
    {
      "inputs": [],
      "stateMutability": "nonpayable",
      "type": "constructor"
    },
    {
      "anonymous": false,
      "inputs": [
        {
          "indexed": true,
          "internalType": "bytes32",
          "name": "hash",
          "type": "bytes32"
        },
        {
          "indexed": true,
          "internalType": "address",
          "name": "addedBy",
          "type": "address"
        },
        {
          "indexed": false,
          "internalType": "uint256",
          "name": "timestamp",
          "type": "uint256"
        }
      ],
      "name": "LogAdded",
      "type": "event"
    },
    {
      "inputs": [
        {
          "internalType": "bytes32",
          "name": "hash",
          "type": "bytes32"
        }
      ],
      "name": "addLog",
      "outputs": [],
      "stateMutability": "nonpayable",
      "type": "function"
    },
    {
      "inputs": [
        {
          "internalType": "uint256",
          "name": "index",
          "type": "uint256"
        }
      ],
      "name": "hashAt",
      "outputs": [
        {
          "internalType": "bytes32",
          "name": "",
          "type": "bytes32"
        }
      ],
      "stateMutability": "view",
      "type": "function"
    },
    {
      "inputs": [],
      "name": "owner",
      "outputs": [
        {
          "internalType": "address",
          "name": "",
          "type": "address"
        }
      ],
      "stateMutability": "view",
      "type": "function"
    },
    {
      "inputs": [],
      "name": "totalLogs",
      "outputs": [
        {
          "internalType": "uint256",
          "name": "",
          "type": "uint256"
        }
      ],
      "stateMutability": "view",
      "type": "function"
    },
    {
      "inputs": [
        {
          "internalType": "bytes32",
          "name": "hash",
          "type": "bytes32"
        }
      ],
      "name": "verifyLog",
      "outputs": [
        {
          "internalType": "bool",
          "name": "verified",
          "type": "bool"
        },
        {
          "internalType": "uint256",
          "name": "timestamp",
          "type": "uint256"
        },
        {
          "internalType": "address",
          "name": "addedBy",
          "type": "address"
        }
      ],
      "stateMutability": "view",
      "type": "function"
    }
  ],
  "bytecode": "0x608060405234801561001057600080fd5b50600280546001600160a01b0319163317905561039c806100326000396000f3fe608060405234801561001057600080fd5b50600436106100575760003560e01c8063788f4fdb1461005c5780638bc44252146100c45780638da5cb5b146100e5578063b95fc3e514610110578063e4ce066214610125575b600080fd5b61009961006a366004610337565b60009081526020819052604090208054600182015460029092015460ff909116926001600160a01b0390911690565b60408051931515845260208401929092526001600160a01b0316908201526060015b60405180910390f35b6100d76100d2366004610337565b61012d565b6040519081526020016100bb565b6002546100f8906001600160a01b031681565b6040516001600160a01b0390911681526020016100bb565b61012361011e366004610337565b6101b5565b005b6001546100d7565b60015460009082106101905760405162461bcd60e51b815260206004820152602160248201527f486f73706974616c4c6f67733a20696e646578206f7574206f6620626f756e646044820152607360f81b60648201526084015b60405180910390fd5b600182815481106101a3576101a3610350565b90600052602060002001549050919050565b806102025760405162461bcd60e51b815260206004820152601860248201527f486f73706974616c4c6f67733a20656d707479206861736800000000000000006044820152606401610187565b60008181526020819052604090205460ff161561026d5760405162461bcd60e51b815260206004820152602360248201527f486f73706974616c4c6f67733a206861736820616c7265616479207265636f7260448201526219195960ea1b6064820152608401610187565b6040805160608101825260018082524260208084018281523385870181815260008981528085528881209751885460ff191690151517885592518787015551600290960180546001600160a01b0319166001600160a01b0390971696909617909555835480850185559390527fb10e2d527612073b26eecdfd717e6a320cf44b4afac2b0732d9fcbe2b7fa0cf69092018590559251928352909183917fd2cc18efe06801f397cde7ec78a2fb0cb111f38f112ef700906ab6ba31e2cfac910160405180910390a350565b60006020828403121561034957600080fd5b5035919050565b634e487b7160e01b600052603260045260246000fdfea26469706673582212204b9b432885c261621bba955a651740ae9a97fe49d32269780eef0cf302f01dfc64736f6c63430008130033",
  "linkReferences": {},
  "deployedLinkReferences": {}
}